:100000000C942A000C9447000C9447000C94470071
:100010000C9447000C9447000C9447000C94470044
:100020000C9447000C9447000C9447000C94470034
:100030000C9447000C9447000C9447000C94470024
:100040000C9447000C9447000C9447000C94470014
:100050000C94470011241FBECFE5D8E0DEBFCDBF12
:1000600010E0A0E6B0E0E0ECF1E002C005900D92F7
:10007000AA36B107D9F710E0AAE6B0E001C01D9298
:10008000A037B107E1F70E94B0000C94DE000C9499
:1000900000008FEF87BB8ABB81B38F6081BB8E98D6
:1000A00008958FEF8BBB80916E00A0E6B0E0FD015C
:1000B000E80FF11D808188BB939A20ED37E0C901DC
:1000C0000197F1F7939880916F00FD01E80FF11D02
:1000D000808188BB929AC9010197F1F7929880912B
:1000E0006D00FD01E80FF11D808188BB919AC90167
:1000F0000197F1F7919880916C00A80FB11D8C9138
:1001000088BB909AC9010197F1F7909808952091C2
:100110006A0030916B00C90168EE73E00E94CA006A
:1001200060936C00C90168EE73E00E94CA0064E647
:1001300070E00E94CA0060936D00C90164E670E03F
:100140000E94CA006AE070E00E94CA0060936F00DB
:10015000C9016AE070E00E94CA0080936E000895B1
:100160000E944900869BFECF0DC00E9451000E9454
:10017000870080916A0090916B00019690936B00CC
:1001800080936A0080916A0090916B008051974241
:1001900048F7EBCFAA1BBB1B51E107C0AA1FBB1F2F
:1001A000A617B70710F0A61BB70B881F991F5A9503
:1001B000A9F780959095BC01CD010895F894FFCFE3
:0A01C0003F065B4F666D7D077F6F01
:00000001FF
